:020000040800F2
:10000000700A0020D5000008B5540008FD30000833
:1000100000000000000000000000000000000000E0
:10002000000000000000000000000000655600080D
:1000300000000000000000000D550008A156000857
:10004000E7000008E7000008E7000008E7000008F4
:10005000E70000089F120008E7000008A912000846
:10006000E7000008E7000008E7000008E7000008D4
:10007000E7000008E700000800000000E7000008B3
:1000800000000000E7000008000000000000000081
:10009000E700000800000000E7000008E700000893
:1000A000E7000008E7000008E7000008E700000894
:1000B000E7000008E7000008E7000008E700000884
:1000C0000348854600F046FB00480047D16700081A
:1000D000700A00200448804704480047FEE7FEE716
:1000E000FEE7FEE7FEE7FEE719570008C10000083B
:1000F00030B50B46014600202022012409E00D46C0
:10010000D5409D4205D31D469540491B2546954047
:1001100040191546521E002DF1DC30BD70B500248B
:100120002546002801DA01244042002901DA012590
:100130004942FFF7DDFFAC4200D04042002C00D026
:10014000494270BD10B503461C460C43A40703D0BA
:1001500009E010C9121F10C3042AFAD203E00C7878
:100160001C70491C5B1C521EF9D210BDD2B201E0BA
:100170000270401C491EFBD270470022F6E710B502
:1001800013460A4604461946FFF7F0FF204610BD05
:10019000421C0178401C0029FBD1801A704703469D
:1001A00003220870000A491C521EFAD518467047EF
:1001B000F8B502464A40D40F42004B0052085B0893
:1001C0009A4202D20246084611464A0023D0C30D85
:1001D0004A00DDB2120EAD1A202D35DA4902012691
:1001E000490AF6058A19002C00D0524220214F1BE3
:1001F0001146B9402A411018C20D9A4221D0002C54
:1002000017D0012D08DCDA05801AD20F8019D20729
:10021000DBB200F007FAF8BDDA05801A01234000CE
:100220001B06C01880185A428018CA0F1043490094
:1002300007E04908C2071143DA05801A801940080F
:10024000801800F0E7F9F8BD61000122511A001B87
:10025000F7E70122D2075140AAE70122D207504016
:10026000A6E7024670B54A40D30FDB0740002DD009
:100270004A002AD0010E140E000212020919400A87
:10028000520A8418E50104465443000A120A2E0457
:100290005043A4194219200CC543AA18120C012579
:1002A000AD03521C521912047F39240400D0521C91
:1002B000104301D44000491EC2B20C06C0092018E8
:1002C000401C4008802A02D003E0002070BD400896
:1002D0004000002900DA0020184370BD70B50246C6
:1002E0004A40D50F40004A00ED0740085208002858
:1002F00014D0002A12D0C40DD30D41020120C00534
:100300005202490A520AE41A091812187D3491421D
:1003100001D3641C00E04900002C01DA002070BD0C
:100320000023914201D3891A034340084900002861
:10033000F7D100290AD0914202D10121C90705E075
:10034000914201D2012101E00121C943E005C01819
:10035000401900F05FF970BDF0B5074608465840F7
:1003600087B0C00F049048000E4659004008490865
:10037000BC1A884105D2384631461E4617460B4600
:1003800002465800400810434CD0300D0390400501
:100390005900400D490D0590401A0290402872DA2C
:1003A00018030121000B09050843019004980092ED
:1003B000002805D001995242002088410092019006
:1003C000029840210A1A0199009800F0EFF80546BA
:1003D0000C466B4607CB00F00AF9C0197141039A2D
:1003E0000E0D0023D71756401A467A40164344D0C4
:1003F000049A002A2DD0029A012A039A15DC1205CC
:10040000C01A914101263605001C7141D20F059E8C
:10041000D2070093019202962A46234600F048F93B
:1004200007B0F0BD38463146FAE71605224A0F46B6
:10043000B218C01AB74101210905001C4F4100182C
:100440007F41114618187941E20F10436D1964413C
:1004500013E0E2076D0815436408C2071443039ACA
:1004600001261205C01A91413605001C7141CE07C4
:10047000400830434908C01851412A46234600F03D
:100480000AF9CDE7FFE7049801224000C117121ACC
:1004900000238B4104983146C417381AA141EEE776
:1004A00030B40124E407634030BC55E730B4012484
:1004B000E407614030BC4FE70000E0FFC217C10F06
:1004C000504010B54018CA079623002100F0AAF842
:1004D00010BD10B500229623114600F0A3F810BD00
:1004E000C20F410040020123400ADB05D207090E7A
:1004F000C0187F2901DA00207047962903DC962373
:10050000591AC84001E096398840002AF4D0404288
:100510007047410040020122400AD205090E8018AE
:100520007F2901DA00207047962903DC9622511AB0
:10053000C8407047963988407047000070B5CD0FAD
:100540004A0009030123090B1B0519430B4BED0757
:100550000024520D9A4201DA002070BD074B34335B
:100560009A4203DC9A1A00F031F802E0044951186B
:1005700088402C43F1D0404270BD0000FF030000D2
:10058000CDFBFFFFC20FD207400040080BD0C10DCA
:100590000723DB01C91840020905400A1143C208BC
:1005A00040071143704700200146704710B5202ACC
:1005B00004DB0146203A9140002010BD91402023E9
:1005C0009C1A0346E3401943904010BD10B5202A01
:1005D00004DB0846203AD040002110BD0B46D34032
:1005E000D0402024A21A91400843194610BD10B5EE
:1005F000202A06DBCB170846203A1041C1170B43CF
:1006000006E00B461341D0402024A21A9140084333
:10061000194610BD002904DA401C490001D14008E8
:100620004000704770B40024050C05D1102400046C
:1006300002D1002921D01124050E01D10002083475
:10064000050F01D10001241D850F01D18000A41CDC
:10065000002801DB4000641C002908D020252E1B47
:100660000D46F540A14000D0012129430843010671
:100670001B1B000ADB1D02D5002070BC7047DB0588
:10068000181880180029F8DA401C4900F5D170BC10
:1006900040084000704710B5002B08DA0024401CC9
:1006A000614192185B411A4301D14008400010BDDE
:1006B000F0B51FB482B005460C0003D0084605F023
:1006C000CBF802E005F0C8F8203002460090214641
:1006D0002846FFF76BFF049B059A04460F46184314
:1006E0001143084314D0184610431BD000984021F2
:1006F0000A1A18460599FFF769FF05460E46009A43
:1007000005990498FFF752FF084305D0012004E043
:100710002046394607B0F0BD0020C11705430E43FF
:100720002C43374300990E986305401A7905E40A73
:1007300000220C43FD0A0A3002D500200146E9E7F9
:100740000105101969410C9C0D9D00196941FFF7C5
:10075000A2FFDFE7064C0125064E05E0E36807CC63
:100760002B430C3C98471034B442F7D3FFF7ACFC52
:10077000A4690008C469000870B58C180578401C8D
:100780006B075B0F01D10378401C2A1106D1027858
:10079000401C03E006780E70401C491C5B1EF9D11A
:1007A0002B0705D40023521E0DD40B70491CFAE709
:1007B0000378401CCB1A921C03E01D780D70491C75
:1007C0005B1C521EF9D5A142D8D3002070BD000099
:1007D0000EB50E496A46088810710012507188885B
:1007E00090710012D071088910720012507201A825
:1007F00000900748062301890022C08805F0A8FB65
:10080000002801D047200EBD00200EBD1802002098
:100810000C00002010B5024A022102F007FF10BDB3
:1008200018020020F0B58BB01B2769460F77C52052
:100830004877D5208877A520C877022508A90D70AC
:1008400000244C70B42088709A20C870E120087190
:10085000112048713A208871CF26CE71802008720D
:100860006E204872362088720120C8721F4800909E
:100870000723012207A9022005F0E7FA002830D15A
:1008800069460F77C5204877D5208877A520C87797
:1008900008A90D704C70B42088709A20C870E120AF
:1008A0000871112048713A208871CE718020087239
:1008B0006E204872362088720320C8720B481021BF
:1008C000801C0422009502920391059004940194E7
:1008D0000838062307AA0221C08805F0EAF9002893
:1008E00002D047200BB0F0BD0020FBE71200002033
:1008F000F0B591B01B2608A90E75C5274F75D525F3
:100900008D75A520C8750220087600244C76B42089
:1009100088769A20C876E1200877112048773A2017
:100920008877CF20C877802010A908706E20487083
:10093000362088700420C8704C4800900A23012299
:100940000DA9022005F081FA00287DD108A80675BE
:100950004775D5218175A521C1750221017644769F
:10096000B42181769A21C176E12101771121417765
:100970003A218177CF21C177802110A801706E259F
:100980004570362181700721C1701022042002AB0E
:1009900015C336490220091D059103460146009002
:1009A000324801940A380DAA408905F082F90028DE
:1009B00056D108A90E754F75D5208875A520C87524
:1009C00002220A764C76B42088769A20C876E120F6
:1009D0000877112048773A208877CF20C877802081
:1009E00010A908704D70362088700520C8701F4906
:1009F0000092891C1D4D10260420059104940223A9
:100A00000396019402900A3D0DAA1946688905F0E3
:100A100050F9002824D10E2008A90872601E4872DF
:100A200013486946488508A90C734C73200A8873DB
:100A300010480C9009A80121089005940AAA06966E
:100A40000794072001AB00E00AE015C30491009071
:100A50000A460CABA989688905F086F9002802D0FE
:100A6000472011B0F0BD0020FBE700001600002079
:100A70002F27000004290000F0B58BB01B25694624
:100A80000D77C5264E77D5208877A520C877022018
:100A900008A9087000244C70B42088709A20C8708F
:100AA000E1200871112048713A278F71CF20C87159
:100AB000802008726E204872362088720B20C8721F
:100AC000204800900723012207A9022005F0BDF964
:100AD000002832D169460D774E77D5208877A5203A
:100AE000C877022008A908704C70B42088709A203A
:100AF000C870E1200871112048718F71CF20C87132
:100B0000802008726E204872362088720C20C872CD
:100B10000C490120891C0290049005910E20009040
:100B200010220848039201941038042307AA0221D6
:100B3000008A05F0BEF8002802D047200BB0F0BDB7
:100B40000020FBE71C00002010B5094B5C8A641CE8
:100B5000A04208D1012906D110789870002803D04E
:100B6000002000F08DF910BD002000F079F910BDD3
:100B70000C00002010B50D480B490160FF21053124
:100B8000416000218160C160016141610122520226
:100B90008261016241620722C2620822C2618162EF
:100BA00001F0C2FA10BD00000030014060020020D8
:100BB00010B500F0E7FC10BD70B505461B4CE078A1
:100BC000012822D004F04FFD012820D0BC20207045
:100BD000BE2060700026A670E6702671012060714C
:100BE0001348A0601349E1602661134A011F0A609F
:100BF0000160466020462C60E1680968002908D041
:100C0000884701280BD0002070BD012070BD012055
:100C100070BD1421FFF7B1FA2E60012070BD1421C0
:100C20002868FFF7AAFA2E60012070BDB0050020E9
:100C3000640000207C000020E400002070B5054620
:100C40001C4CE078012823D004F00DFD012821D0B0
:100C5000BC202070BE2060700026A670E670267151
:100C60000120607120465030A0601349E160266188
:100C70001349124A0A600160466020462C60E16810
:100C80000968002908D0884701280BD0002070BDD2
:100C9000012070BD012070BD1421FFF76EFA2E6097
:100CA000012070BD14212868FFF767FA2E6001202B
:100CB00070BD0000C4050020B0000020E40000204A
:100CC0006C00002010B500280AD0C268002909D0A5
:100CD0009269002A08D09047012807D0002010BD53
:100CE000012010BD012010BD012010BD012010BD4C
:100CF00010B50246084600210160002A04D0FFF723
:100D00005BFF012804D110BDFFF756FF012801D079
:100D1000002010BD012010BD002805D0002905D0FD
:100D2000C07808700020704701207047012070478C
:100D300010B5002808D0C1688968002906D0884706
:100D4000012805D0002010BD012010BD012010BDDC
:100D5000012010BD10B50724E443054802F00CFA49
:100D6000034800F078FC002800D10024204610BD84
:100D70002402002070B500240F490E480860084680
:100D800000F080FC002812D10B4802F007FA0A4854
:100D900004F066FB0725ED43002801D02C4606E051
:100DA0000021054800F0F4FB002800D02C46204626
:100DB00070BD000000540040240200203EB507240E
:100DC000E44300927D250A46ED0001930146029519
:100DD0000123044800F0B2FC002800D10024204682
:100DE0003EBD0000240200203EB50D460724E4432A
:100DF0007D21C900029101930092C1B201232A46CC
:100E0000034800F041FD002800D1002420463EBDEB
:100E100024020020F0B587B00E49CA6A01231A43A4
:100E2000CA62C96A194001910B4E4500715B02917B
:100E300003930021049103210591084F8400385940
:100E400002A900F0E5FA715B3859002200F093FB2B
:100E500007B0F0BD00100240326900082C000020ED
:100E600010B5054A4100515A044A8000105800222A
:100E700000F081FB10BD0000326900082C0000204A
:100E800010B5054A4100515A044A80001058012209
:100E900000F071FB10BD0000326900082C0000203A
:100EA00070B50546214CE07F01282DD004F0DBFB16
:100EB00001282BD0B1202077B82060770320A077BD
:100EC0000026E67720462030067001214170014659
:100ED000283140384164164981641649C164174875
:100EE00015490160214630318861CE6108461438C9
:100EF0002860C168096800290AD0884701280DD0F8
:100F000002F0DEFE002070BD012070BD012070BD2A
:100F10001421FFF732F92E60012070BD14212868DA
:100F2000FFF72BF92E60012070BD0000E4050020C2
:100F300024010020580100209401002078000020A6
:100F4000F8B505460C4614202E4F6843C019C078EA
:100F500001280ED004F087FB01280CD0394601226D
:100F6000BD205031284B0026012D06D0022D32D154
:100F700018E00120F8BD0120F8BD3875BA20787559
:100F8000BA75FE753E767A761E485830F8613B6237
:100F90007E621F481D4A02608860CE601948143086
:100FA000206018E0174D20352872B82068720220A2
:100FB000A872EE722E736A732846403038637B63E2
:100FC000BE63124A1248121D001D026008614E6184
:100FD0002846083020602068C1680968002904D0CC
:100FE0008847012807D00020F8BD1421FFF7C5F875
:100FF00026600120F8BD14212068FFF7BEF82660A6
:101000000120F8BDC4050020E80000201C010020DC
:101010007000002010B500280AD0C268002909D04D
:101020009269002A08D09047012807D0002010BDFF
:10103000012010BD012010BD012010BD012010BDF8
:1010400010B50C460021216000281BD001281FD0BC
:10105000022824D0032829D02046FFF721FF0128A9
:1010600029D121460220FFF76BFF012823D120461A
:10107000FFF7E4FD01281ED12146FFF761FF01289B
:1010800019D110BD2046FFF7D9FD012813D110BD9D
:1010900021460120FFF754FF01280CD110BD214645
:1010A0000220FFF74DFF012805D110BD2046FFF7B4
:1010B000F7FE012801D0002010BD012010BD00283E
:1010C00005D0002905D0C0780870002070470120A5
:1010D00070470120704710B5002808D0C1688968A2
:1010E000002906D08847012805D0002010BD012026
:1010F00010BD012010BD012010BD10B5052001213B
:10110000000700F031FA012801D0002010BD0120B5
:1011100010BD70B5FF24052501342D07002221469E
:10112000284600F028FA052000F0E6F801222146C2
:10113000284600F020FA052000F0DEF870BD00001F
:10114000F7B588B00E4617460024FF20079022A06E
:1011500003C805910490052000220221000700F039
:101160000AFA0F200090052302AA04A9089801F0AA
:10117000B3F86946087A02281AD16846007B05024E
:101180006846C07A0543002D12D0BD4200D93D46C5
:101190000F270BE0012306AA07A90097089801F082
:1011A0009BF86846007E3055641CE4B2AC42F1D333
:1011B000052001220221000700F0DDF90020019046
:1011C00003E000BF0198401C019001980228F8DB61
:1011D00020460BB0F0BD00000B0000000000000036
:1011E000FFB5C5B04E9E1D46002421A003C8449102
:1011F000439021A003C84291419000F04BF8052094
:1012000000220221000700F0B6F90F27052341AAAA
:1012100043A90097459801F05FF840A8007902289B
:101220000BD0641E052001220221000700F0A3F963
:1012300000F046F8204649B0F0BD40A84079A91911
:10124000884212D3002D06D000972B4601AA46995A
:10125000459801F041F8002EE4D0334601AA0097EA
:101260004799459801F038F8DCE70124E443D9E7D1
:101270000A00000000000000AA00000000000000BA
:1012800001490120486170470004014010B500F099
:1012900079F910BD10B5052000F0CCFB10BD10B5DC
:1012A000012000F0A9F810BD10B50120400300F0A6
:1012B000A3F802490120087010BD000000000020C2
:1012C00010B5052000F0C0FB10BD0000044801224D
:1012D000426181800520401E0028FCDC7047000030
:1012E0000C0000200348002141610122027041707E
:1012F000704700000C00002031B500F043F90446AF
:1013000000F040F90099001B8842F9D338BD000075
:10131000F0B58E4600225BE0012393409C46714667
:101320000B40002B53D0016855000324AC40A1436F
:101330000160D10889000D182F6A5607F10E0F269B
:101340008E40B7432F628168A14381604168654642
:10135000A9434160C168A143C16094081E49A4002B
:101360006518AC6891070F0F0F263946BE40374607
:10137000274005242407A04201D1002414E0174C83
:10138000A04201D101240FE0154CA04201D102245A
:101390000AE0144CA04201D1032405E0124CA04203
:1013A00001D1052400E006248C40BC420FD1A9687D
:1013B000B143A9600D490C689C430C604C689C4388
:1013C0004C608C689C438C60CC689C43CC60521C05
:1013D0007146D140A0D1F0BD000001400004005092
:1013E00000080050000C0050001C00500004014098
:1013F00010B501F06BF910BD10B504494A690242FD
:1014000002D04861FFF7F4FF10BD00000004014066
:10141000F0B5002293E001249440A4462340002B21
:101420007ED04C68022C01D0122C0CD1D408A40020
:1014300027183D6A5407E40E0F26A640B5430E69EF
:10144000A6402E433E624C68012C05D0022C03D0EE
:10145000112C01D0122C11D1856854000326A6400E
:10146000B543CE68A6402E43866044686546AC43CB
:101470000D79ED06ED0F9540254345600768540052
:101480000325A540AF430E79B607B60FA6403E43ED
:101490000660C668AE438D68A5403543C5604C689C
:1014A000E4004BD5294D6C6B012634436C639508E1
:1014B000274CAD002D19AF689407240F0F26A640C6
:1014C000B74305263607B04201D1002614E0214E6D
:1014D000B04201D101260FE01F4EB04201D10226D9
:1014E0000AE01E4EB04201D1032605E01C4EB04278
:1014F00001D1052600E00626A6403E43AE60194D08
:101500002C689C434E68F60300D51C432C606C6825
:101510009C434E68B60300D51C436C60AC6800E089
:101520000CE09C434E68F60200D51C43AC60EC68AE
:101530009C434E68B60200D51C43EC60521C0B68FD
:101540001C46D44000D066E7F0BD00000010024009
:10155000000001400004005000080050000C005042
:10156000001C0050000401400069084201D0012025
:10157000704700207047002A01D081617047816266
:1015800070470000014800687047000044000020D8
:1015900070B502462032537D022B27D0537D122B8B
:1015A00024D0537D222B21D0537D322B1ED0537D4E
:1015B000422B1BD0137D012B1AD00124147502235A
:1015C000537503681D68A5431D6003681D682603E5
:1015D000B5431D6003681D680D431D600068016808
:1015E0002143016054750020107570BD022070BD4C
:1015F000022070BD70B502462032537D022B26D0EA
:10160000537D122B23D0537D222B20D0537D322BA0
:101610001DD0537D422B1AD0137D012B19D00124EC
:1016200014750223537503681D68A5431D60036884
:101630001D680F263602B543090229431960006868
:1016400001682143016054750020107570BD0220AF
:1016500070BD022070BD70B50446002C10D0022071
:1016600025462035687520680168490849000160F1
:10167000204600F0B3F90020A0636875287570BD9E
:10168000012070BD2030407D7047000070B50446D9
:10169000002C06D025462035687D0026002802D083
:1016A00005E0012070BD2E75204600F098F902205B
:1016B0006875206801684908490001600F21606869
:1016C0000906884321680861206882680121C903EE
:1016D0008A438260A068002807D0E268012A08D007
:1016E00021218902084321688860E068022804D02B
:1016F00007E0084321688860F7E701202168C002FD
:101700004860206841680C4A114341606169206962
:101710000843A169090208432168C860216AE06999
:101720000843216808602068026801210A430260BA
:10173000A6636975002070BD00800002FFB581B00E
:101740000B9C064637462037787D012802D00220C0
:1017500005B0F0BD0A98002808D0002C06D03068EB
:101760008069C043000403D40220F1E70120EFE7C1
:10177000387D012814D0012038756220787500204A
:10178000B0630C9800903046029901F00BFE0028DF
:101790000CD0B06B042805D0002038750320D7E7A3
:1017A0000220D5E7002038750120D1E7092080020A
:1017B000FF2C09D9012300901B06FF223046029915
:1017C00001F06EFEFF2508E001230090E2B25B0607
:1017D0003046029901F064FE25460022042130467D
:1017E0000C9B01F06FFE002801D00320B0E73068A9
:1017F000406A0A9908700A98401C0A906D1E641E7F
:10180000A4B2002D22D1002C20D00022802130460D
:101810000C9B01F057FE002801D0032098E7FF2C15
:101820000AD90020012300901B06FF2230460299AE
:1018300001F036FEFF2509E0002001230090E2B20E
:101840005B063046029901F02BFE2546002CC4D1E0
:101850001921304601F072FE002806D0B06B042832
:1018600001D0032074E7012072E731682020C861AD
:1018700030684168034A11404160012078750020BA
:10188000387565E700E800FEFFB581B00B9C0646A1
:1018900037462037787D012802D0022005B0F0BD00
:1018A0000A98002808D0002C06D030688069C04310
:1018B000000403D40220F1E70120EFE7387D01287E
:1018C00014D001203875522078750020B0630C9830
:1018D00000903046029901F0A4FD00280CD0B06BB6
:1018E000042805D0002038750320D7E70220D5E76B
:1018F000002038750120D1E7FF2C0AD900200123F0
:1019000000901B06FF223046029901F0C9FDFF2519
:1019100009E0002001230090E2B25B063046029904
:1019200001F0BEFD254630460C9901F02FFE00283F
:1019300006D0B06B042801D00320AFE70120ADE74B
:101940000A983168007888620A98401C0A906D1ED7
:10195000641EA4B2002D22D1002C20D000228021B0
:1019600030460C9B01F0AEFD002801D0032095E726
:10197000FF2C0AD90020012300901B06FF223046CD
:10198000029901F08DFDFF2509E000200123009060
:10199000E2B25B063046029901F082FD2546002C3A
:1019A000C1D11921304601F0C9FD002806D0B06B25
:1019B000042801D0032071E701206FE7316820205F
:1019C000C86130684168044A11404160012078755F
:1019D0000020387562E7000000E800FE704770479D
:1019E00002480168491C0160704700004400002063
:1019F00010B506480168022291430160032000F0FF
:101A000007F800F016F8002010BD0000002002408A
:101A100010B5044600F0DCF87D21C900FEF768FB34
:101A200000F0D8FD00222146501E00F017F80020DB
:101A300010BD7047C106C90E0120884001490860E9
:101A40007047000080E100E0C106C90E0120884017
:101A5000014908607047000000E100E010B503F0A4
:101A60002BFD10BDF8B504460E4656480068C00769
:101A7000C00FB0420CD253480168490849003143B5
:101A800001600068C007C00FB04201D00120F8BD5E
:101A900020784D4F800705D5F868F0218843A1686C
:101AA0000843F8602078C00760D06068022808D03A
:101AB00000280BD003280ED03968490710D4012024
:101AC000F8BD396889030BD40120F8BD3968890550
:101AD00006D40120F8BD3968890101D40120F8BD80
:101AE000F968890889000143F960FFF74BFD054655
:101AF000606802280CD0032818D0002824D030E0D9
:101B0000FFF740FD411B3148814201D90320F8BD58
:101B1000F8680007800F0228F2D127E0FFF732FDB6
:101B2000411B2A48814201D90320F8BDF86800070B
:101B3000800F0328F2D119E0FFF724FD411B234851
:101B4000814201D90320F8BDF8680007800FF3D166
:101B50000CE0FFF717FD411B1C48814201D903200F
:101B6000F8BDF8680007800F0128F2D11548016818
:101B7000C907C90FB1420BD3016849084900314375
:101B800001600068C007C00FB04201D00120F8BD5D
:101B90002078400706D5F868072109028843E168E4
:101BA0000843F8602078000707D5F8680721C902C4
:101BB00088432169C9000843F8600320FFF728FF24
:101BC0000020F8BD002002400010024088130000F1
:101BD00010B500F011F80549C968054A0906090F52
:101BE000515CC8400349086010BD0000001002406D
:101BF0004F6900084000002010B5214B58680004D0
:101C0000420FD9680C2001401E4808D0042909D091
:101C100008290ED00C290ED0521C904010BD521C29
:101C2000904010BD1868C00601D5174810BD174870
:101C300010BD174810BDD8680F2189040840D96825
:101C4000032292051140134A800C105C890D491C37
:101C5000DA68012424042240002A04D00C4A5043AC
:101C6000FEF746FA10BD1A68D20604D5064A50435C
:101C7000FEF73EFA10BD054A5043FEF739FA10BD93
:101C8000001002400080000000093D000024F40024
:101C900000127A0046690008FEB504462078FD4E21
:101CA000C00756D0F0680007800F022807D0F06800
:101CB0000007800F03280AD1F068C00307D53068F9
:101CC000800346D56068002843D10120FEBD012174
:101CD00060680904884203D130680843306018E026
:101CE000052301221B049204984209D130688843DD
:101CF000306030681043306030680843306008E07E
:101D00003068884330603068084001903068904304
:101D10003060606800280ED0FFF734FC054606E00E
:101D2000FFF730FC401B642801D90320FEBD30685A
:101D30008003F5D50DE0FFF725FC054606E0FFF72B
:101D400021FC401B642801D90320FEBD30688003BC
:101D5000F5D4207880074BD5F0681F270007800F47
:101D60003F02012807D0F0680007800F032811D137
:101D7000F068C0030ED43068400704D5E06801283D
:101D800001D00120FEBD70682169B84309020843F3
:101D900070602DE0E0680921002818D032688A437D
:101DA00002433260FFF7EEFB054606E0FFF7EAFB71
:101DB000401B022801D90320FEBD30684007F5D53D
:101DC00070682169B84309020843706010E0306808
:101DD00088433060FFF7D6FB054606E0FFF7D2FBED
:101DE000401B022801D90320FEBD30684007F5D40E
:101DF0002078C00652D5F068A74F0007800F0BD09F
:101E0000E069002837D03068FF2101310843306095
:101E1000FFF7B8FB05461EE03068800502D5E06993
:101E200000280FD07068616AB8430843706070681A
:101E3000218C0002000A0906084370600320FFF7A6
:101E4000E7FD2BE00120FEBDFFF79CFB401B0228B5
:101E500001D90320FEBD30688005F5D57068616A40
:101E6000B843084370607068218C0002000A0906BC
:101E70000843706012E03168FF2001308143316017
:101E8000FFF780FB054606E0FFF77CFB401B0228BE
:101E900001D90320FEBD30688005F5D420787F4D40
:101EA000000727D56069002812D02869012108435E
:101EB0002861FFF767FB074606E0FFF763FBC01BDF
:101EC000022801D90320FEBD28698007F5D511E05D
:101ED0002869400840002861FFF754FB074606E0E8
:101EE000FFF750FBC01B022801D90320FEBD286963
:101EF0008007F5D42078800634D5A1696848002988
:101F000019D0B16801221143B160716B1143716343
:101F1000016A644A11430162FFF734FB074606E099
:101F2000FFF730FBC01B022801D90320FEBDB068BB
:101F30008007F5D516E0B16849084900B160016A2B
:101F4000584AD24311400162FFF71CFB074606E0E6
:101F5000FFF718FBC01B022801D90320FEBDB068A3
:101F60008007F5D4207840076FD5002001900090BD
:101F7000B06BC00006D4B06B012109070843B06301
:101F80000120019048480068C00515D44648016802
:101F900082151143016001200090FFF7F3FA074614
:101FA00006E0FFF7EFFAC01B642801D90320FEBD4D
:101FB0003D480068C005F4D5FF27A0680137B84246
:101FC00003D12869384328611EE0012189020028D5
:101FD0000DD005221202904210D12869B843286121
:101FE0002869084328612869384328610CE028697A
:101FF000B843286128698843286105E02869B84307
:102000002861286988432861A068002810D0FFF75C
:10201000B9FA029008E0FFF7B5FA0299411A23488D
:10202000814201D90320FEBD28698005F3D510E067
:10203000FFF7A8FA029009E0FFF7A4FA0299411A03
:102040001A48814202D90320FEBD10E028698005AC
:10205000F2D40098012803D113480168B943016004
:102060000198012803D1B16B00078143B163A06AD5
:10207000002855D0F1680907890F032952D001279C
:102080003F06022814D03068B8433060FFF77AFA70
:10209000044642E00010024000E000004010024010
:1020A0000000014001200000007000408813000083
:1020B0003068B8433060FFF765FA054606E0FFF781
:1020C00061FA401B022801D90320BDE73068800176
:1020D000F5D4616B206BF2680843E16AFD231B04B1
:1020E0009A4311430843F060306838433060FFF78B
:1020F00049FA044606E0FFF745FA001B022801D919
:102100000320A1E730688001F5D509E0FFF73AFA2E
:10211000001B022801D9032096E730688001F5D41E
:10212000002091E701208FE770B50446002C06D00F
:1021300025464035687C0026002802D005E00120B5
:1021400070BD2E74204600F033F8022068742068B9
:102150000168402291430160A168606822690843D8
:10216000E16811430843616901220843A1695202F1
:1021700011400843E1690843216A0843A16A084302
:1021800021680860A0690421000C0840616A0843C6
:10219000216848602168E06A08612068C16992008E
:1021A0009143C161666501206874002070BD000024
:1021B000F0B587B00068444988427CD14348C16A81
:1021C00001242143C162C16A21400191C16A0226F2
:1021D0003143C162C16A31400191C16A2143C16288
:1021E000C16A21400191C16A2143C162C16A214093
:1021F0000191C16A2143C162C16A21400191C16A52
:102200002143C162C16A21400191416B8214114393
:10221000416387150297039404940025059506955C
:10222000052002A90007FFF7F3F805200022394630
:102230000007FFF7A0F908200290039604960327F1
:102240000597069502A92248FFF7E2F84020029080
:102250000396049505970695052002A90007FFF748
:10226000D7F88020029003960495059706950520DF
:1022700002A90007FFF7CCF802960394049405978F
:102280000695052002A90007FFF7C2F805200122E4
:1022900002210007FFF76FF902940E48039004959E
:1022A00005970695052002A90007FFF7B1F800225F
:1022B0000321052000E004E0FFF7D0FB0520FFF735
:1022C000C3FB07B0F0BD0000003001400010024029
:1022D0000004005000001110F8B5044600200090E2
:1022E000254640356E7C012E04D06E7C222E01D016
:1022F0000220F8BD00290CD0002A0AD0002B08D0FB
:102300002E7C012E07D001262E746E7C012E04D067
:1023100005E00120F8BD0220F8BD32266E740020D1
:102320006065A263A387E3872163A386E386A06435
:10233000E0640126A06A7603B04207D120680168F4
:10234000B143016020680168314301602068016881
:10235000490603D401684022114301600122D202E0
:10236000FF21E0680531570090427ED16068002867
:1023700004D088420CD1E08E012809D1206B21685D
:102380000088C860206B801C2063E08E401EE086C1
:10239000E08E00284DD1A06AB04203D120680168C8
:1023A00039430160002201212046069B03F0F4F826
:1023B000002801D00320F8BD2068C068A16B088008
:1023C000A06B801CA063E08F401EE087C3E000226A
:1023D00002212046069B03F0DFF8002801D00320ED
:1023E000F8BD206B21680088C860206B801C2063CA
:1023F000E08E401E80B2E086002806D1A06AB0427E
:1024000003D1206801683943016000220121204680
:10241000069B03F0C1F8002801D00320F8BD206816
:10242000C068A16B0880A06B801CA063E08F401E79
:10243000E087E08E0028CAD16068002814D100220D
:1024400001212046069B03F0A7F8002802D00320B4
:10245000F8BD0AE02068C068A16B0880A06B801CF2
:10246000A063E08F401EE08775E06068002804D01C
:1024700088420BD1E08E012808D1206B411C2163DA
:1024800021680078C860E08E401EE086E08E00285B
:1024900048D1A06AB04203D1206801683943016085
:1024A000002201212046069B03F076F8002801D087
:1024B0000320CDE72068C068A16B0870E08F401E44
:1024C000E08748E0002202212046069B03F064F8E2
:1024D000002801D00320BBE7206B411C2163216849
:1024E0000078C860E08E401E80B2E086002806D1E9
:1024F000A06AB04203D1206801683943016000221C
:1025000001212046069B03F047F8002801D0032054
:102510009EE72068C168A06B421CA2630170E08F37
:10252000401EE087E08E0028CCD16068002812D1E0
:10253000002201212046069B03F02EF8002801D03E
:10254000032085E72068C168A06B421CA26301706C
:10255000E08F401EE087A06A0227B04211D100221E
:1025600001212046069B03F017F8002804D0606D77
:102570003843606503206BE72068C06800906946B7
:102580000888012280212046069B03F005F80028D8
:1025900005D0606D202108436065032058E70120C5
:1025A0006874A06AB04212D120688168C943C90624
:1025B0000DD4616D394361650168B14301602068E4
:1025C00001683143016000202874012040E70020A9
:1025D00028743DE710B50949401E884201D9012001
:1025E00010BD074C60610321081F02F065FF002049
:1025F000A06107202061002010BD0000FFFFFF0048
:1026000000E000E010B5421C0078042816D11078D4
:10261000052814D03E2815D0FF280FD1921C5078E1
:102620001178000208431A49401818D0132805D120
:10263000507911790002084302F070FF10BDFEF7D7
:1026400051FE10BD901C01780129FAD1401C8178FF
:10265000427809021143401DFEF738FE10BD0D48B7
:102660000078012809D0921CD07893781179000263
:102670001843521DFEF768FA10BD921CD07893786B
:10268000117900021843D21DFEF75EFA10BD00005A
:10269000FFF3FFFF0800002070B50A4803F0B2FE08
:1026A0000848083003F0AEFE0024074D8C2060433C
:1026B0004119044803F0B5FE641CE4B2052CF5D3BF
:1026C00070BD00004C000020B802002008B50020BA
:1026D0000090FEF7D5FD2CE0184803F0AEFE002870
:1026E00002D0FEF7CDFD08BD6946144803F0B1FEE7
:1026F0000099802208311248FEF722FDC1B200295C
:1027000011D000988822115400F04AF8002804D013
:102710000A48009903F079FE09E00848009908305A
:1027200003F07FFE03E00548009903F06EFEFEF71C
:10273000A7FDFEF7E2FC0028CED108BD4C0000202A
:102740006002002008B500200090FEF7A3FD0F48AE
:1027500003F073FE13E069460C4803F07AFEFEF7BF
:10276000AFFD00980830FFF74DFFFEF793FD0748D7
:102770000099083803F055FE044803F05EFE002877
:10278000E9D0FFF7A3FFFEF79BFD08BD5400002032
:1027900010B5024803F051FE10BD000054000020A7
:1027A000014608310A78042A01D0012070478030A0
:1027B000007A8978C01E814201D002207047002033
:1027C000704738B504466B4601222021204600F0B0
:1027D00097FA002801D0012038BD69460878802189
:1027E000084300906B4601222021204600F02BFC7C
:1027F000002801D0012038BD002038BD38B504467E
:10280000002000906946204600F0A6F9012806D075
:10281000694620780978884203D0012038BD01201C
:1028200038BD002038BD38B504466B460122202152
:10283000204600F065FA002801D0012038BD694625
:1028400008784006400E00906B4601222021204669
:1028500000F0F9FB002801D0012038BD002038BD70
:1028600038B50C4615466B460122272100F048FA80
:10287000002801D0012038BD684600788007C00FCD
:10288000207068460078C007C00F2870002038BD4F
:1028900010B50B4601220F2100F032FA002801D0BA
:1028A000012010BD002010BD38B50C46002100915C
:1028B000694600F011F8012809D068460088FDF744
:1028C00008FE0449FDF70AFD2060002038BD012004
:1028D00038BD000000002041F3B583B0074601ABCE
:1028E00002223021384600F00BFA002802D00120E5
:1028F00005B0F0BD68460079450868464079400853
:10290000029001AB02223621384600F0F9F9002886
:1029100001D00120ECE769464879097900020843B3
:1029200004B201AB02223A21384600F0E9F900284E
:1029300001D00120DCE769464879097900020843A3
:1029400006B201AB02222821384600F0D9F900284E
:1029500001D00120CCE76946487909790002084393
:1029600007B22846FDF7AAFD0090301BFDF7A6FD33
:1029700006460298401BFDF7A1FD0546381BFDF7F2
:102980009DFD2946FDF76DFC3146FDF7A7FC00993A
:10299000FDF70EFC0A49FDF764FC0A49884202DD96
:1029A0007D20C00008E0FF21C905C84201D30020F6
:1029B00002E0FDF7AEFD80B204990880002097E7A1
:1029C0000000204100007A4438B50C46694600F00A
:1029D00027F801280DD06846007800280BD0012880
:1029E0000CD002280ED003280FD00A482060012006
:1029F00038BD012038BD0020206008E07F20C005E0
:102A0000206004E00448206001E0044820600020C9
:102A100038BD0000000080BF0000E04000004841D9
:102A200038B50C466B460122202100F069F90028D8
:102A300001D0012038BD694608788007800F0090DA
:102A40002070002038BD000038B50C4600210091F0
:102A5000694600F011F801280AD069460020085E96
:102A6000FDF72CFD0349FDF739FC2060002038BD3F
:102A7000012038BD00002041F3B585B003AB022230
:102A80003221059800F03CF9002802D0012007B05F
:102A9000F0BD02AB01223521059800F031F9002884
:102AA00001D00120F3E76A46107A127B8107890D75
:102AB00011430C2210406A46527B80011043CD1016
:102AC000C71003AB04223C21059800F019F9002837
:102AD00001D00120DBE76946487B097B00020843FF
:102AE00004B26946C87B897B0002084306B203AB87
:102AF00002222A21059800F003F9002801D00120C4
:102B0000C5E76946487B097B0002084300B2049090
:102B10002846FDF7D3FC0190301BFDF7CFFC06469D
:102B2000781BFDF7CBFC05460498001BFDF7C6FC9F
:102B30002946FDF796FB3146FDF7D0FB0199FDF7DD
:102B400037FB0449FDF78DFBFDF7CAFC06990880A9
:102B500000209CE70000204110B5FFF799FE0128F6
:102B600001D0002010BD012010BD10B5FFF746FEBA
:102B700010BD10B50446A0680068006840780028C1
:102B800004D1204600F050F8012806D0A1680020AA
:102B9000096809680870E07010BD012010BD1CB5FF
:102BA0000C466A4601A9FFF75BFE012807D068467C
:102BB0000079002808D0012803D001201CBD012085
:102BC0001CBD0120207001E00020207000201CBDF1
:102BD00010B5FFF769FE10BD10B5FFF7F5FE10BD8B
:102BE00010B5FFF7B9FF10BD10B50446A068006826
:102BF00000684078002804D1204600F05FF80128E2
:102C000007D0A1680120096809680870E0700020F9
:102C100010BD012010BD10B500F082F8012801D0D0
:102C2000002010BD012010BD10B5044620790028F9
:102C300006D0A06800680068C078002802D006E0CE
:102C4000002010BD204600F076F8012806D0A168CB
:102C50000020096809688870207110BD012010BD2E
:102C600010B504462079012806D0A06800680068E5
:102C7000C078002802D006E0002010BD204600F0F9
:102C800063F8012807D0A1680120096809688870E5
:102C90002071002010BD012010BD10B500F0A8F873
:102CA00010BD10B500F0C0F810BD10B500F0DBF994
:102CB000012801D0002010BD012010BD10B5044630
:102CC0002046FFF79BFD012812D02046FFF7ABFD01
:102CD00001280FD00121204600F040F801280BD038
:102CE0000021204600F084F8012807D0002010BD04
:102CF000012010BD012010BD012010BD012010BD1C
:102D000010B51C46012A01D98023194313462246D7
:102D100002F0B2FC002801D0012010BD002010BD3F
:102D200010B513460122FFF7EBFF012801D0002068
:102D300010BD012010BD10B5FFF775FD012801D0B1
:102D4000002010BD012010BD10B5FFF73AFD01288D
:102D500001D0002010BD012010BD000038B505468F
:102D60000C46012C05D0002C03D0104910A000F017
:102D700085F96B46012220212846FFF7C1FF002874
:102D800001D0012038BD69460978FB200140A00030
:102D9000084300906B4601222021284600F053F999
:102DA000002801D0012038BD002038BD630200009A
:102DB0002E2E5C2E2E5C2E2E5C2E2E5C2E2E5C2E4D
:102DC0002E5C447269766572735C4253505C436F4B
:102DD0006D706F6E656E74735C6874733232315CE3
:102DE0004854533232315F4472697665722E630003
:102DF00010B50B0002F047FD050406080A0C13008D
:102E0000012106E0032104E0032102E0032100E0A8
:102E1000032100F021F8012803D0002010BD01207B
:102E200010BD012010BD000010B57F22D2059142D7
:102E300001DC012105E0074A914201DC022100E0AA
:102E4000032100F009F8012801D0002010BD012065
:102E500010BD00000000E04038B505460C46002CCF
:102E600009D0012C07D0022C05D0032C03D0104927
:102E700010A000F003F96B46012220212846FFF73D
:102E80003FFF002801D0012038BD68460078810846
:102E90008900214300916B4601222021284600F041
:102EA000D2F8002801D0012038BD002038BD000034
:102EB000BA0200002E2E5C2E2E5C2E2E5C2E2E5C76
:102EC0002E2E5C2E2E5C447269766572735C4253C2
:102ED000505C436F6D706F6E656E74735C68747375
:102EE0003232315C4854533232315F447269766514
:102EF000722E630010B5FFF781FC10BD10B50446BB
:102F0000A068006800680078002804D1204600F01E
:102F100050F8012806D0A1680020096809684870A7
:102F2000E07010BD012010BD1CB50C466A4601A919
:102F3000FFF796FC012807D068460078002808D0E3
:102F4000012803D001201CBD01201CBD01202070E0
:102F500001E00020207000201CBD10B5FFF734FDFB
:102F600010BD10B5FFF770FD10BD10B5FFF7F4FDF3
:102F700010BD10B50446A0680068006800780028FD
:102F800004D12046FFF79AFE012807D0A16801204E
:102F9000096809684870E070002010BD012010BD6C
:102FA00010B5FFF7BDFE012801D0002010BD0120A3
:102FB00010BD10B504462079002806D0A06800682E
:102FC00000688078002802D006E0002010BD20466E
:102FD000FFF7B1FE012806D0A16800200968096842
:102FE000C870207110BD012010BD10B504462079B5
:102FF000012806D0A068006800688078002802D008
:1030000006E0002010BD2046FFF79EFE012807D0F5
:10301000A168012009680968C8702071002010BDEE
:10302000012010BD10B5FFF7E3FE10BD10B5FFF78E
:10303000FBFE10BD10B500F016F8012801D00020ED
:1030400010BD012010BD10B51C46012A01D98023F6
:1030500019431346224602F019FB002801D0012033
:1030600010BD002010BD07B502AB0122FFF7EBFF3A
:10307000012801D000200EBD01200EBD0A460146E8
:1030800001A002F0D9FBFEE757726F6E67207061F6
:1030900072616D65746572732076616C75653A2036
:1030A00066696C65202573206F6E206C696E6520E3
:1030B00025640D0A00000000FEB506460F461546C1
:1030C0001C460C480A210068FDF712F8014601A8C9
:1030D00002F096FBE4B2EBB23A4631460648009461
:1030E000FEF77EF8002804D001A802F07BFB002840
:1030F000F1D0FEBD2C69000860020020FEE7000050
:103100007CB50446002001900E4D01A9E869FDF749
:1031100003FE002814D168460079012810D16946C1
:10312000E869FDF7CFFD08490098FDF79AF8FDF72B
:1031300029FA0022054BFDF70FF9FDF7FFF9208072
:103140007CBD00000C000020000020410000E03F9A
:1031500001B582B002A8009006480223C18900226E
:10316000408902F0F5FE002801D047200EBD002066
:103170000EBD00000C00002010B50648816B012236
:10318000520591438163032109020348FEF7C0F809
:1031900010BD0000001002400004005000B585B0D2
:1031A00003200002009012200190012002900320D1
:1031B00003900420049069460548FEF729F9054864
:1031C000816B012252051143816305B000BD0000EF
:1031D000000400500010024010B50348FEF73BFA0F
:1031E00000F004F810BD00007405002010B50E4872
:1031F000FEF748FA00280DD10B480C4941603321F5
:1032000081600121C1600A49016000F013F806489D
:10321000FEF73CFA0448FEF735FA012801D00120F8
:1032200010BD002010BD0000740500202E11B1005B
:103230000054004010B586B0154CE16A02200143ED
:10324000E162E16A0140009103210902019112212A
:1032500002910490002003900420059001A90D48DC
:10326000FEF7D6F8A16B012040050143A163A16AD6
:103270000143A162A16A8143A16200221146172085
:10328000FEF7ECFB1720FEF7DFFB06B010BD0000D9
:1032900000100240000400503EB504460948006892
:1032A0000092019302900A46012321460648FEF748
:1032B00045FA002804D02046FFF78EFF01203EBDCE
:1032C00000203EBD5C000020740500203EB5044691
:1032D000094800680092019302900A4601232146A2
:1032E0000648FEF7D1FA002804D02046FFF774FF05
:1032F00001203EBD00203EBD5C0000207405002082
:10330000F8B504460E46FEF73DF907462068816988
:10331000C943C90641D425462035697D122905D007
:10332000697D522902D0697D622917D141688901DE
:1033300014D4416801229203114341600EE0701CD5
:103340000CD0002E04D0FEF71DF9C01BB04205D9E9
:1033500001206875002028750320F8BD2068806969
:10336000C0438006EBD421681020C861216820206A
:10337000C86120688169C943C90701D00121C161C1
:1033800020684168064A114041600420A063012082
:103390006875002028750120F8BD0020F8BD0000E8
:1033A00000E800FEF8B5069F044616461D460120BB
:1033B00040030090EAB20023204600F071F839463D
:1033C000204600F0E3F8002806D0A06B042801D0C6
:1033D0000320F8BD0120F8BD2846F5B201280DD024
:1033E0002168300A88623946204600F0CFF800286C
:1033F00009D0A06B042804D00320F8BD20688562A2
:1034000003E00120F8BD206885623B460022402190
:10341000204600F057F8002801D00320F8BD002016
:10342000F8BDF8B5069F044616461D460120400328
:10343000C3020090EAB2204600F032F83946204636
:1034400000F0A4F8002806D0A06B042801D00320C7
:10345000F8BD0120F8BD2846F5B201280DD021683D
:10346000300A88623946204600F090F8002809D0DA
:10347000A06B042804D00320F8BD2068856203E017
:103480000120F8BD206885623B460022802120464D
:1034900000F018F8002801D00320F8BD0020F8BD86
:1034A00070B5049D00684468054E34408905890D57
:1034B00012041143194329432143416070BD0000A8
:1034C000009800FCFFB581B0064615461C46FEF785
:1034D00059F80746294635462035002910D025E001
:1034E000601C0DD0002C04D0FEF74CF8C01BA0428D
:1034F00006D90120687500202875032005B0F0BDAD
:103500003068816902988843C003E9D114E0601CE7
:103510000CD0002C04D0FEF735F8C01BA04205D912
:1035200001206875002028750320E7E7306881696D
:1035300002988843C003EAD00020DFE770B5044654
:103540000D46FEF71FF8064619E029462046FFF70C
:10355000D7FE002801D0012070BD002D04D0FEF759
:1035600011F8801BA8420AD9A06B20210843A06350
:1035700001202034607500202075032070BD206874
:103580008069C0438006E0D4002070BD70B5054658
:103590000C46FDF7F7FF06461BE021462846FFF7DD
:1035A000AFFE002801D0012070BD601C11D0002C9E
:1035B00004D0FDF7E7FF801BA0420AD9A86B2021A9
:1035C0000843A86301202035687500202875032072
:1035D00070BD28688069C0438007DED4002070BDBC
:1035E00010B50122D243002801D0104610BD0D486D
:1035F00003680846984301D0104610BD094A890067
:10360000121D5158084889004058016810460C386E
:1036100000688847002802D00420C04310BD002065
:1036200010BD0000A40100206406002010B5012395
:10363000DB43002801D0184610BD0D480468084639
:10364000A04301D0184610BD094B89001B1D5958D5
:103650000848890040581146C36905480838006881
:103660009847002802D00420C04310BD002010BDA0
:10367000A401002064060020F3B589B007460020AD
:10368000079001240025002F07D0801E079007987F
:10369000002828D007980BB0F0BD0A9801F0B0F9C7
:1036A000002802D00020C043F5E721492048091D29
:1036B00009680068CA6869469047002802D0062059
:1036C000C043E8E768460078012800D10225684633
:1036D0004078012800D10543684680780128D6D17A
:1036E00004200543D3E7002638460C2148431149FE
:1036F0004018BF0008900A982146814312D1204605
:10370000A8430FD10A49A2000C31895808988900B2
:10371000405801680648C0598847002802D0042054
:10372000C043B8E76400761C032EE4D30798B2E7E1
:103730009C0100206406002038B50446002000905B
:103740006946204600F04EFA012806D069462078E6
:103750000978884203D0012038BD012038BD0020FF
:1037600038BD70B505461446284600F0B5F9012865
:1037700007D02146284600F009FA012803D000208E
:1037800070BD012070BD012070BD1CB50C4669469E
:1037900000F01FF9012804D068464078207000200E
:1037A0001CBD01201CBD1CB50C46694600F011F97A
:1037B000012804D068460079207000201CBD01203B
:1037C0001CBD1CB50C46694600F003F9012804D065
:1037D00068468078207000201CBD01201CBD38B5D3
:1037E0000C46694600F0E2F8012804D068460078EB
:1037F0002070002038BD012038BD1CB50C4669463C
:1038000000F0E7F8012804D0684600782070002016
:103810001CBD01201CBD1CB50C46694600F0D9F842
:10382000012804D06846C078207000201CBD01200B
:103830001CBD10B500F0F0F8012801D0002010BD2B
:10384000012010BD10B5002905D0012909D0022999
:103850000DD0012010BD002100F097FA01280BD1F6
:1038600010BD002100F0B1FA012805D110BD0021E2
:1038700000F0CBFA012801D0002010BD012010BDBE
:1038800010B5002905D0012909D002290DD0012049
:1038900010BD012100F079FA01280BD110BD0121E2
:1038A00000F093FA012805D110BD012100F0ADFA16
:1038B000012801D0002010BD012010BD10B56029E5
:1038C0000DD006DC00290AD0202908D0402904D1D7
:1038D00005E0802903D0E02901D0012010BD00F0CF
:1038E000B4FA012801D0002010BD012010BD10B590
:1038F00000F0EAFA012801D0002010BD012010BD1F
:1039000010B5002903D0012901D0012010BD00F01D
:10391000FAFA012801D0002010BD012010BD10B519
:10392000002903D0012901D0012010BD00F0ACFA1C
:10393000012801D0002010BD012010BD10B50029C4
:1039400003D0012901D0012010BD00F0DCFA0128CC
:1039500001D0002010BD012010BD38B50C466B46CB
:103960000122272100F088F9002801D0012038BD6C
:1039700068460078C107C90F6170022108402070B5
:10398000684600788106C90FA170C006C00FE070BC
:10399000002038BD10B50B4601220F2100F06CF954
:1039A000002801D0012010BD002010BD38B50C4604
:1039B0006B460122142100F05FF9002801D001209C
:1039C00038BD694608784009400100902070002009
:1039D00038BD38B50C466B460122262100F04CF963
:1039E000002801D0012038BD68460078C109217146
:1039F0004106C90FE1708006800E2070012100226F
:103A0000002805D06270202804D0A270002038BDA4
:103A10006170F8E7A170F9E710B50C462346012262
:103A2000142100F029F9002801D0012010BD2078D0
:103A3000C006C00E2070002010BD000038B50C4636
:103A4000694600F037F801280BD068460078302826
:103A50001BD008DC00280ED010280FD0202806D15B
:103A600010E0012038BD402812D0502813D00C4857
:103A70002060012038BD002020600EE07F20C005BE
:103A800020600AE00748206007E00748206004E063
:103A90000648206001E006482060002038BD000094
:103AA000000080BF000020410000C84100004842E3
:103AB0000000964238B50C466B460122102100F0FA
:103AC000DBF8002801D0012038BD6846007870215D
:103AD00008402070002038BD38B50C460021009108
:103AE000694600F00FF8012808D00098FCF7E6FCC2
:103AF0000349FCF7F3FB2060002038BD012038BDEE
:103B00000000C84238B50C46694600F00EF800289F
:103B100001D0012038BD009864214843C117090D28
:103B2000081800132060002038BD38B50D46002469
:103B30006B460322282100F09FF8002801D00120C5
:103B400038BD002069460A5CC3009A401443401CFB
:103B5000C0B20328F7D3200202D5FF200006044399
:103B60002C60002038BD38B50C466B4602222B2154
:103B700000F082F8002801D0012038BD694648785D
:103B80000978000240182080002038BD38B50C4666
:103B900000210091694600F011F801280AD0694619
:103BA0000020085EFCF78AFC0349FCF797FB2060C5
:103BB000002038BD012038BD0000204138B50C463A
:103BC0006946FFF7D0FF002801D0012038BD6946C3
:103BD0000020085E0A2148436421FCF79FFA2080F8
:103BE000002038BD10B5FFF7D5FE012801D0002018
:103BF00010BD012010BD000070B505460C462846DA
:103C0000FFF79AFD012827D01A4860600121284655
:103C100000F08BFA012821D00021284600F066FA36
:103C200001281DD00021284600F08DF9012819D067
:103C30000021284600F0A7F9012815D002212846C6
:103C400000F084F8012811D00021284600F05EF829
:103C500001280DD0002070BD012070BD012070BD75
:103C6000012070BD012070BD012070BD012070BD1C
:103C7000012070BD0000C841FFB581B00D46164659
:103C80001F4600240CE02819C1B23A1901230198FB
:103C900001F0F2FC002802D0012005B0F0BD641C48
:103CA000B442F0DB0020F8E710B513460122FFF71D
:103CB000E3FF012801D0002010BD012010BD00004D
:103CC00000B587B00F48C16A01221143C162C06AC2
:103CD00010400190102002900B48039002200590A4
:103CE00000200490052002A90007FDF791FB0022A7
:103CF00011460720FDF7B2FE0720FDF7A5FE0020C4
:103D000007B000BD001002400000111038B5044695
:103D10000D466B46012211212046FFF7ADFF00281A
:103D200001D0012038BD69460A78EF200240280101
:103D3000104300906B4601221121204600F0CAFA80
:103D4000002801D0012038BD002038BD38B5054617
:103D50000C466B46012210212846FFF78DFF0028F4
:103D600001D0012038BD68460278FD200240224380
:103D700000926B4601221021284600F0ABFA002881
:103D800001D0002038BD002038BD38B504460D46AE
:103D90006B46012212212046FFF76EFF002801D05A
:103DA000012038BD69460A78EF20024028011043FF
:103DB00000906B4601221221204600F08BFA002869
:103DC00001D0012038BD002038BD38B504460D466D
:103DD0006B46012212212046FFF74EFF002801D03A
:103DE000012038BD69460A78DF200240680110438F
:103DF00000906B4601221221204600F06BFA002849
:103E000001D0012038BD002038BD38B504460D462C
:103E10006B46012212212046FFF72EFF002801D019
:103E2000012038BD69460A78F7200240E8001043B7
:103E300000906B4601221221204600F04BFA002828
:103E400001D0012038BD002038BD38B505460C46EC
:103E50006B46012214212846FFF70EFF002801D0EF
:103E6000012038BD68460078C206D20E2243009277
:103E70006B4601221421284600F02CFA002801D0BC
:103E8000012038BD002038BD38B504460D466B46CC
:103E9000012211212046FFF7EFFE002801D001206A
:103EA00038BD69460A78BF200240A801104300903F
:103EB0006B4601221121204600F00CFA002801D0A7
:103EC000012038BD002038BD38B505460C466B468C
:103ED000012214212846FFF7CFFE002801D001203F
:103EE00038BD6846007842095201224300926B4671
:103EF00001221421284600F0EDF9002801D001200C
:103F000038BD002038BD38B504460D466B46012249
:103F100011212046FFF7B0FE002801D0012038BD56
:103F200069460A78DF2002406801104300906B4622
:103F300001221121204600F0CDF9002801D00120F6
:103F400038BD002038BD38B504460D466B46012209
:103F500010212046FFF790FE002801D0012038BD37
:103F600069460A78F7200240E800104300906B464B
:103F700001221021204600F0ADF9002801D00120D7
:103F800038BD002038BD38B505460C466B460122C9
:103F900010212846FFF770FE002801D0012038BD0F
:103FA00068460278FB200240224300926B460122C1
:103FB0001021284600F08EF9002801D0012038BDDC
:103FC000002038BD7F20C005814209DD06488142BE
:103FD00006DD0648814203DD0548814200DD0548D3
:103FE0005060002070470000000020410000C841E0
:103FF000000048420000964270B5054614467F20F6
:10400000C005814201DC10210FE01048814201DC33
:1040100020210AE00E48814201DC302105E00D48F4
:10402000814201DC402100E05021284600F05EF88A
:10403000012807D0211D2846FFF700FD012803D0E5
:10404000002070BD012070BD012070BD0000204126
:104050000000C8410000484200B50B0001F013FC0D
:104060000504080B0E1115007F20C00550600AE002
:104070000748506007E00748506004E00648506079
:1040800001E006485060002000BD012000BD000096
:10409000000020410000C841000048420000964254
:1040A00070B5054614460B0001F0EDFB050406084B
:1040B0000A0C1A00102106E0202104E0302102E061
:1040C000402100E05021284600F010F8012809D0D6
:1040D000211D2846FFF7B2FC012805D0002070BD45
:1040E000012070BD012070BD012070BD38B50546AE
:1040F0000C466B46012210212846FFF7BDFD002823
:1041000001D0012038BD684602788F20024022434A
:1041100000926B4601221021284600F0DBF80028AF
:1041200001D0012038BD002038BD38B505460C4609
:104130006B4601221A212846FFF79EFD002801D078
:10414000012038BD684600784208520022430092A0
:104150006B4601221A21284600F0BCF8002801D045
:10416000012038BD002038BD10B5FFF7E5FA10BDBD
:1041700070B50546A868006804682078002804D156
:10418000284600F040F8012803D000206070E87055
:1041900070BD012070BD38B50C466946FFF7DDFBE8
:1041A000012804D0684600782070002038BD012026
:1041B00038BD10B5FFF742FC10BD10B5FFF7E6FCA7
:1041C00010BD10B5FFF70EFD10BD70B50546A8680F
:1041D000006804682078002805D121462846FFF7AA
:1041E0000BFD012804D001206070E870002070BD34
:1041F000012070BD10B5FFF757FD012801D0002048
:1042000010BD012010BD70B50446A06800680568A7
:104210002079002803D0A878002802D007E00020E9
:1042200070BD00212046FFF761FF012803D0002068
:10423000E870207170BD012070BD70B50446A068A3
:1042400000680568207901280BD02A462046696855
:10425000FFF7D2FE012806D00120E870207100206F
:1042600070BD002070BD012070BD10B5826812685D
:1042700012680379012B04D0FFF7EEFE012808D065
:1042800003E0FFF70DFF012801D0002010BD012041
:1042900010BD012010BD10B5826812681268037944
:1042A000012B04D0FFF78EFE012808D003E0FFF7B2
:1042B000A3FE012801D0002010BD012010BD012067
:1042C00010BD10B500F01EF8012801D0002010BD6F
:1042D000012010BDFFB581B00D4616461F460024D3
:1042E0000CE02819C1B23A190123019801F0CEF966
:1042F000002802D0012005B0F0BD641CB442F0DB00
:104300000020F8E707B502AB0122FFF7E3FF012821
:1043100001D000200EBD01200EBD10B5012100F01E
:1043200043FA002801D0012010BD002010BD38B58F
:104330000446002000906946204600F0C7F8012896
:1043400006D0694620780978884203D0012038BD1C
:10435000012038BD002038BD10B5002100F024FA3E
:10436000002801D0012010BD002010BD38B50C463A
:104370006B460122272100F0EDF8002801D0012032
:1043800038BD68460078C007C00F207068460078C6
:104390008107C90F6170C106C90FA1708006C00FE7
:1043A000E070002038BD10B50B4601220F2100F04F
:1043B000D1F8002801D0012010BD002010BD000060
:1043C00038B50C46694600F02FF8012809D0684638
:1043D0000078202816D006DC00280CD0102806D142
:1043E0000CE0012038BD30280FD0402810D00A48FA
:1043F0002060012038BD002020600BE07F20C00538
:10440000206007E00548206004E00548206001E0E6
:1044100004482060002038BD000080BF0000E0405C
:10442000000048410000C84138B50C466B460122E7
:10443000202100F08FF8002801D0012038BD684607
:104440000078702108402070002038BD38B50C4637
:104450006B4602222B2100F07DF8002801D00120BC
:1044600038BD69464878097800024018208000204D
:1044700038BD000038B50C4600210091694600F0B7
:1044800011F801280AD069460020085EFCF716F8EA
:104490000349FBF723FF2060002038BD012038BD11
:1044A0000000204138B50C466946FFF7CFFF0028D1
:1044B00001D0012038BD6A4600203021105EFBF794
:1044C0002DFEFF30AA302080002038BD10B5FFF748
:1044D0006AFF012801D0002010BD012010BD10B5D9
:1044E00004462046FFF723FF012825D02046FFF78A
:1044F00033FF012822D00021204600F0EBF80128EC
:104500001ED00121204600F0B9F801281AD004215C
:10451000204600F089F8012816D00121204600F03D
:104520006FF9012812D004220121204600F040F842
:1045300001280DD0002010BD012010BD012010BDAC
:10454000012010BD012010BD012010BD012010BDB3
:10455000012010BD10B51C46012A01D98023194342
:104560001346224601F088F8002801D0012010BD32
:10457000002010BD10B513460122FFF7EBFF012804
:1045800001D0002010BD012010BD10B5FFF7E4FEE2
:10459000012801D0002010BD012010BD10B5FFF78B
:1045A000BCFE012801D0002010BD012010BD00007C
:1045B000F8B506460D461446002C09D0042C07D049
:1045C000082C05D00C2C03D0A521164800F0FCF9CE
:1045D000002D09D0012D07D0022D05D0032D03D0C9
:1045E000A621104800F0F0F96B4601221021304658
:1045F000FFF7B0FF002801D00120F8BD6846007821
:10460000010909012943214300916B460122102130
:10461000304600F0BDF9002801D00120F8BD00208F
:10462000F8BD00006069000838B505460C46002C4E
:1046300006D0042C04D0FF2177310F4800F0C4F9D4
:104640006B46012220212846FFF784FF002801D075
:10465000012038BD68460178FB20014021430091CC
:104660006B4601222021284600F092F9002801D053
:10467000012038BD002038BD6069000838B5054606
:104680000C46012C06D0002C04D0FF21A13110488B
:1046900000F09AF96B46012220212846FFF75AFFC5
:1046A000002801D0012038BD69460978F720014073
:1046B000E000084300906B4601222021284600F0CC
:1046C00067F9002801D0012038BD002038BD000066
:1046D0006069000810B50B0001F0D5F80504060864
:1046E0000A0C1300102106E0302104E0402102E012
:1046F000402100E0402100F027F8012803D00020ED
:1047000010BD012010BD012010BD000010B57F229A
:10471000D205914201DC10210AE0094A914201DCF4
:10472000202105E0074A914201DC302100E04021D0
:1047300000F00AF8012801D0002010BD012010BDB2
:104740000000E0400000484138B505460C46002C0A
:104750000CD0102C0AD0202C08D0302C06D0402CA5
:1047600004D0FF2131310F4800F02EF96B460122B1
:1047700020212846FFF7EEFE002801D0012038BD99
:10478000684601788F200140214300916B46012249
:104790002021284600F0FCF8002801D0012038BD77
:1047A000002038BD6069000838B505460C46002C6D
:1047B00006D0012C04D0FF215C31104800F004F930
:1047C0006B46012220212846FFF7C4FE002801D0B5
:1047D000012038BD694608784106490EE0010843CA
:1047E00000906B4601222021284600F0D1F80028D5
:1047F00001D0012038BD002038BD000060690008EC
:1048000038B505460C46002C06D0012C04D0FF21FB
:10481000E3310F4800F0D8F86B46012220212846EA
:10482000FFF798FE002801D0012038BD68460078C7
:1048300041084900214300916B460122202128466E
:1048400000F0A6F8002801D0012038BD002038BDB6
:104850006069000810B5FFF76AFD10BD10B5044689
:10486000A068006800680078002804D1204600F0A5
:1048700045F8012806D0A168002009680968487039
:10488000E07010BD012010BD38B50C466946FFF739
:104890006DFD012804D0684600782070002038BDE6
:1048A000012038BD10B5FFF78BFD10BD10B5FFF727
:1048B000E1FD10BD10B5FFF709FE10BD10B50446AF
:1048C000A068006800680078002804D12046FFF73F
:1048D00006FE012807D0A168012009680968487010
:1048E000E070002010BD012010BD10B5FFF742FEA2
:1048F000012801D0002010BD012010BD10B50446D4
:104900002079002806D0A068006800688078002818
:1049100002D006E0002010BD2046FFF736FE012839
:1049200006D0A168002009680968C870207110BD10
:10493000012010BD10B504462079012806D0A068DA
:10494000006800688078002802D006E0002010BDD2
:104950002046FFF723FE012807D0A168012009683F
:104960000968C8702071002010BD012010BD10B56D
:10497000FFF7B0FE10BD10B5FFF7C8FE10BD10B5B3
:1049800000F016F8012801D0002010BD012010BD54
:1049900010B51C46012A01D980231943134622462B
:1049A00000F074FE002801D0012010BD002010BDD1
:1049B00007B502AB0122FFF7EBFF012801D0002071
:1049C0000EBD01200EBD00000A46014601A000F008
:1049D00033FFFEE757726F6E6720706172616D651D
:1049E0007465727320746D703A2066696C65202559
:1049F00073206F6E206C696E652025640D0A0000BF
:104A0000F0B58FB00546002400200A90D72008A9F1
:104A10000873314808903148099031480D90314869
:104A20000C9031480E90314800F0C0FCE61F002881
:104A300001D034464DE007A92C4800F0ABFC00281B
:104A400001D0344645E06846007F6A2801D03446EC
:104A50003FE06946254800F043FC68460078244A58
:104A600041006846807880000143684640780143F1
:104A700011601E49083A11601D4B1E4A1B1F1A6027
:104A80001D4E1E4FEB070CD001280AD173681C483D
:104A90009B00F850126808469047002801D0042473
:104AA000E443A80715D568460078012811D1B168FC
:104AB0001448890078500E480D490838091F0968C4
:104AC000006809688847002802D00424E44300E015
:104AD000002420460FB0F0BD750D0008550D0008EC
:104AE000BD0D0008E90D0008B10B000834060020D8
:104AF000A4010020BC010020A801002064060020C1
:104B0000F0010020CC01002070B5014620310C4698
:104B1000497A00290BD001461C302B31064601F0A2
:104B2000C8FD0025ED43002803D0284670BD0020B5
:104B300070BD0021304601F0F7FD002801D0284665
:104B400070BD0020607270BD10B504462034617ADB
:104B5000012908D0E17A1C3001F0E6FD002804D0DC
:104B60000020C04310BD002010BD01206072002055
:104B700010BDFEB506460C4600200090304601A947
:104B80001C3001F095FC0025ED43002801D028469B
:104B9000FEBD6946304600F0B9F8002801D028462D
:104BA000FEBD69460420085EFBF788FC0099FBF710
:104BB00058FBFBF795FC206069460620085EFBF772
:104BC0007DFC00990D46FBF74CFBFBF789FC606010
:104BD00069460820085EFBF771FC2946FBF741FB9C
:104BE000FBF77EFCA0600020FEBD1CB50C466946AC
:104BF0001C3001F05DFC002802D00020C0431CBD29
:104C000068460088208068464088608068468088C2
:104C1000A08000201CBD38B50C46002569461C301C
:104C200001F09BFD691E002801D0084638BD68468A
:104C30000278002A08D0012A0FD0022A07D0032ABE
:104C400008D00D46284638BD02202060FAE704202F
:104C50002060F7E708202060F4E710202060F1E7EB
:104C600038B50C46002569461C3001F022FD691E4E
:104C7000002801D0084638BD68460078030000F0DF
:104C800002FE0C070D101316191C1F2225280A2BD3
:104C90000020206021E0124820601EE011482060C2
:104CA0001BE01148206018E01048206015E0104813
:104CB000206012E00F4820600FE00F4820600CE0F9
:104CC0000E48206009E00E48206006E00D48206094
:104CD00003E00D48206000E00D46284638BD000086
:104CE000CDCCCC3F000048410000D04100005042F4
:104CF0000000D042000050430000D0430040504428
:104D00000080CF44002050450020D04538B50C46E7
:104D1000002569461C3001F020FD691E002801D0E5
:104D2000084638BD68460278002A08D0012A0FD00C
:104D3000022A07D0032A08D00D46284638BD064867
:104D40002060FAE705482060F7E705482060F4E7AF
:104D500004482060F1E7000023DB793D23DBF93DC7
:104D600023DB793E23DBF93E10B5022901DC00216B
:104D700008E0042901DC022104E0082901DC032108
:104D800000E001211C3001F009FD002802D00020C4
:104D9000C04310BD002010BD10B52922125C012AAD
:104DA00002D000F005F810BD00F046F810BD00007C
:104DB000184A914201DC012128E0174A914201DCA6
:104DC000022123E0154A914201DC03211EE0144A2E
:104DD000914201DC042119E0124A914201DC0521D3
:104DE00014E0114A914201DC06210FE00F4A914282
:104DF00001DC07210AE00E4A914201DC082105E0AE
:104E00000C4A914201DC092100E00A212030C172E4
:104E100000207047000048410000D041000050428F
:104E20000000D042000050430000D04300405044F6
:104E30000080CF440020504510B51C4A914201DC4F
:104E4000012128E01A4A914201DC022123E0194A9B
:104E5000914201DC03211EE0174A914201DC04214A
:104E600019E0164A914201DC052114E0144A9142EE
:104E700001DC06210FE0134A914201DC07210AE020
:104E8000114A914201DC082105E0104A914201DCFF
:104E9000092100E00A211C3001F046FC002802D064
:104EA0000020C04310BD002010BD0000000048419C
:104EB0000000D041000050420000D04200005043AA
:104EC0000000D043004050440080CF4400205045B3
:104ED00070B504462046FFF717FE0025ED43002875
:104EE00001D0284670BD204600F00BF8002801D004
:104EF000284670BD00212034E17221732172002008
:104F000070BD70B5014620310C46897A00290BD05E
:104F100001461C302C31064601F02DFB0025ED43E7
:104F2000002803D0284670BD002070BD0021304607
:104F300001F059FB002801D0284670BD0020A07266
:104F400070BD10B504462034A17A012908D0217B18
:104F50001C3001F048FB002804D00020C04310BDE5
:104F6000002010BD0120A072002010BDFEB5064635
:104F70000C46304601A91C3001F0A1FA0025ED4392
:104F8000002801D02846FEBD6946304600F0BAF838
:104F9000002801D02846FEBD69460420085EFBF7C4
:104FA0008DFA0099FBF75DF9FBF79AFA20606946E4
:104FB0000620085EFBF782FA00990D46FBF751F9CF
:104FC000FBF78EFA606069460820085EFBF776FA08
:104FD0002946FBF746F9FBF783FAA0600020FEBDE7
:104FE0001CB50C4669461C3001F069FA002802D055
:104FF0000020C0431CBD6846008820806846408869
:10500000608068468088A08000201CBD38B50C46B2
:10501000002569461C3001F0FFFA691E002801D006
:10502000084638BD68460078030000F02CFC0708ED
:10503000050B170F171317007D2020600FE0FA20D3
:1050400020600CE0FF20F530206008E07D20C000EB
:10505000206004E07D200001206000E00D4628462D
:1050600038BD000038B50C46002569461C3001F0FB
:1050700082FA691E002801D0084638BD68460078CB
:10508000030000F000FC0B070A0D101316191C1F7B
:1050900022252800002020601EE0104820601BE030
:1050A0000F48206018E00F48206015E00E4820608F
:1050B00012E00E4820600FE00D4820600CE00D4823
:1050C000206009E00C48206006E00C48206003E006
:1050D0000B48206000E00D46284638BD00004841DE
:1050E0000000D041000050420000D0420000504378
:1050F0000000D043004050440080CF440020504581
:105100000020D04538B50C46002569461C3001F01A
:1051100083FA691E002801D0084638BD6846007829
:10512000030000F0B0FB0708050B140E1411140067
:10513000084820600CE00848206009E0074820602B
:1051400006E00748206003E00648206000E00D46C6
:10515000284638BD00008C4000000C4100008C4106
:1051600000000C4200008C4210B57D2901DC0121B9
:1051700010E0FA2901DC00210CE0FF22F532914217
:1051800001DC022106E07D22D200914201DC0421F3
:1051900000E006211C3001F064FA002802D0002053
:1051A000C04310BD002010BD10B52A22125C012A98
:1051B00002D000F005F810BD00F046F810BD000068
:1051C000184A914201DC012128E0174A914201DC92
:1051D000022123E0154A914201DC03211EE0144A1A
:1051E000914201DC042119E0124A914201DC0521BF
:1051F00014E0114A914201DC06210FE00F4A91426E
:1052000001DC07210AE00E4A914201DC082105E099
:105210000C4A914201DC092100E00A21203001738F
:1052200000207047000048410000D041000050427B
:105230000000D042000050430000D04300405044E2
:105240000080CF440020504510B51C4A914201DC3B
:10525000012128E01A4A914201DC022123E0194A87
:10526000914201DC03211EE0174A914201DC042136
:1052700019E0164A914201DC052114E0144A9142DA
:1052800001DC06210FE0134A914201DC07210AE00C
:10529000114A914201DC082105E0104A914201DCEB
:1052A000092100E00A211C3001F09DF9002802D0FC
:1052B0000020C04310BD002010BD00000000484188
:1052C0000000D041000050420000D0420000504396
:1052D0000000D043004050440080CF44002050459F
:1052E00001200870487000208870C8707D2212016B
:1052F0004A6010228A60C860024A0A614A61886175
:10530000704700000020D045F8B5044620461C3008
:105310000121074601F0DAF80026F643002801D003
:105320003046F8BD0121384601F0EAF8002801D0E6
:105330003046F8BD0021384601F003F9002801D0BD
:105340003046F8BD04252034E5720021384601F0CE
:10535000EBF9002801D03046F8BD0021384601F0B5
:105360001DFA002801D03046F8BD257300213846CB
:1053700001F039F9002801D03046F8BD0621384641
:1053800001F06FF9002801D03046F8BD01202072ED
:105390000020F8BD10B51C3001F0CCF8002802D078
:1053A0000020C04310BD002010BD000070B50446B1
:1053B00000256E1E002C19D0086820604A686260C3
:1053C0008A68A2600A7B22730A6922614A69626163
:1053D0008969A161104921621049E1616462002874
:1053E00006D08047002805D0354612E0354610E04B
:1053F00035460EE0A06802280BD12820005D002869
:1054000007D10C221221204600F00AF8002800D013
:105410003546284670BD00000F5500082958000881
:1054200007B5012302AA1C3001F03CF9002802D084
:105430000020C0430EBD00200EBD000008B5074887
:105440000090801E418A02230022408900F080FDE6
:10545000002801D0472008BD002008BD0E00002014
:1054600070B5044600251148206011486060002096
:10547000A0600121E16020616061A061E0612062C3
:105480002046FCF703F9002800D001250021204622
:10549000FCF77EF8002800D0012500212046FCF70B
:1054A000A9F8002800D00125284670BD005400400E
:1054B000280C2000704700008307FF22DB0E9A4073
:1054C0008907090E994000280BDA0007000F0838F9
:1054D000830808489B001818C36993430B43C361B2
:1054E0007047830804489B001818036893430B43D4
:1054F0000360704700ED00E000E400E010B5FAF74B
:1055000021FE10BD10B5FAF73AFE10BD704730B459
:10551000047B45692046AC4630BC604738B51C4C1E
:105520000021A289521C904209D10091684600F0E6
:1055300031F96A460020105E00F018F920E0E28997
:10554000521C904209D100916846FDF7D9FD6A4688
:105550000020105EFDF7FCFD12E02189491C884205
:1055600007D10020FBF756F90A4807C8FBF730F9C6
:1055700006E0618A491C884202D1A078FFF75EFFED
:10558000A088002802D0A08800F0A3FC38BD00004D
:105590000C00002018020020FFB581B0044616461A
:1055A0001D46FBF7EFFF07463146264640360029E9
:1055B00026D050E0681C23D0002D04D0FBF7E2FF7A
:1055C000C01BA8421CD920684268E0218A4342607F
:1055D00020680168402291430160A06AD10188429D
:1055E00007D1206802688A430260206802680A4383
:1055F00002600120707400203074032005B0F0BDFB
:105600002068816802988843D4D129E0681C22D0A0
:10561000002D04D0FBF7B6FFC01BA8421BD92068A1
:105620004268E0218A4342602068026840218A4340
:105630000260A06AC901884207D1206802688A43D3
:105640000260206802680A43026001207074002032
:1056500030740320D2E72068816802988843D5D04F
:105660000020CBE7704710B5FDF7C0FD002801D042
:10567000012010BD002010BD10B54078FDF70CFED4
:10568000002801D0012010BD002010BD10B54078C9
:10569000FDF71CFE002801D0012010BD002010BD28
:1056A00010B5FCF79DF902484168491C416010BDE6
:1056B0000000002070B594B0154CA06B2104084385
:1056C000A063144801680322D2029143C2148918CE
:1056D00001600220019001260496102105910B9093
:1056E00000250C9540040D9000010E9001A8FCF7D8
:1056F000D3FA0F960320109011951295139501215E
:105700000FA8FCF7AFF9606B3043606314B070BD55
:1057100000100240007000401048016882151143DB
:105720000160C1680E4A1140C16001680D4A114014
:105730000160816849084900816001680122920482
:1057400091430160C168FD2212049143C1600021B0
:1057500001610549C00388607047000000100240E5
:105760000C40FF88F6FFF6FE00ED00E001B582B0C8
:1057700002A800900648022381890022408900F097
:10578000E7FB002801D047200EBD00200EBD000021
:105790000C0000207CB50446002001900E4D01A9AC
:1057A000A869FBF78CFC002814D168460079012811
:1057B00010D16946A869FBF72DFC08490098FAF753
:1057C00050FDFAF7DFFE0022054BFAF7C5FDFAF7A8
:1057D000B5FE20807CBD00000C00002000002041B0
:1057E0000000E03F10B50446FBF750FD2168401A69
:1057F000401C6168814201D2012010BD002010BD13
:1058000010B504466160FBF741FD206010BD00004B
:1058100010B5044C2078002803D001F067F8002070
:10582000207010BD0C00002030B4047B05692046B8
:10583000AC4630BC604700000FB410B503A9044B60
:10584000044A029800F03CF810BC08BC04B01847A9
:1058500091600008140200202021020C01D01021C8
:105860001046020A01D010460839020901D010463C
:10587000091F820801D01046891E420801D0881EE7
:105880007047081A704730B47446641E2578641C4B
:10589000AB4200D21D46635D5B00E31830BC184785
:1058A00002E008C8121F08C1002AFAD170477047E9
:1058B000002001E001C1121F002AFBD17047000047
:1058C000FFB58DB00F460546002606E025280AD014
:1058D000109A0F9990476D1C761C28780028F5D1F6
:1058E000304611B0F0BD00240121674A009400E069
:1058F00004436D1C2B780846203B98401042F7D19A
:1059000028782E2815D10420044368786D1C2A2895
:105910000AD101CF6D1C00900BE000990A2251437F
:10592000303940186D1C009028780146303909291B
:10593000F3D92878692843D006DC0028D0D0632822
:105940000BD0642804D13BE073280FD075284CD0CD
:10595000109A0F999047761C94E03878694608723F
:105960000020487202A80190012003E038680190ED
:105970000020C0433F1D61070CD5002400E0641CDB
:1059800000998C420FDA8442F9DB0199095D002904
:10599000F5D108E0002400E0641C8442FCDB01999E
:1059A000095D0029F8D1361907E0019801990078BE
:1059B000491C0191109A0F999047641EF5D261E03D
:1059C0000A20019001CF002802DA40422D2102E096
:1059D000210504D52B216A461172012103E0E1075C
:1059E00001D02021F7E70C9104E00A20019001CFBB
:1059F00000210C910BA90B9108E00199FAF778FBB3
:105A00000A460B993032491E0B910A700028F4D1D6
:105A10000B9803A9081A20300190600701D500985F
:105A200001E0012000900199884203DD01460198C0
:105A3000081A00E000200024009006E002A8109A56
:105A4000005D0F999047641C761C0C988442F5DB2E
:105A500004E0109A30200F999047761C0099481E58
:105A600000900029F5DC08E00B980B990078491CA0
:105A70000B91109A0F999047761C0199481E01903E
:105A80000029F1DC6D1C28E70928010070B58AB0F7
:105A90000C4615461E4603900722002101A8FFF779
:105AA00031FD1822002104A8FFF72CFD3F20694694
:105AB00008828A20488203A806900120079001A846
:105AC000089007200990002104A800F0B3FB0028EB
:105AD00002DAFF200AB070BD684600790028F9D1CB
:105AE0006946887949790002084320806946087A26
:105AF000C9790002084328806946887A497A0002F9
:105B0000084330800020E5E770B58AB00F9E0E9DF7
:105B10001C466B46187359739A730722002101A81B
:105B2000FFF7F0FC1822002104A8FFF7EBFC3F2050
:105B30006B4618828A20588203A80690032007909B
:105B400001A8089007200990002104A800F072FB2A
:105B5000002802DAFF200AB070BD684600790028EC
:105B6000F9D169468879497900020843208069465D
:105B7000087AC9790002084328806946887A497AF8
:105B80000002084330800020E5E7F0B58FB0159E95
:105B9000149D17461C466A4610725172394602AF70
:105BA0001022B81CFFF7AAFC6A469476D5761677C1
:105BB00007A901311698FAF7F2FA08AA1798507057
:105BC0001822002109A8FFF79DFC3F206A46908417
:105BD0008620D0840B971A200C9001A80D900120EC
:105BE0000E90002109A800F025FB002802DAFF2012
:105BF0000FB0F0BD684600790028F9D1F8E7FFB58D
:105C000091B01D9E1B9DA9190E31282902D9422051
:105C100015B0F0BD69466C4608700127601C022271
:105C200012A9FFF76BFCE01C022213A9FFF766FC28
:105C30006946149848711A988871CD7102A82A464D
:105C40001C99FFF75BFC0835E8B22654401CC5B22E
:105C5000601932461E99FFF751FCA819C5B26019A8
:105C600002221FA9FFF74AFCAD1CEDB26019022207
:105C700020A9FFF743FCAD1CEDB2182200210BA8B0
:105C8000FFF740FC3F20694688858320C8850D9436
:105C90000E950AA80F90109700210BA800F0CAFAE1
:105CA000002801DAFF20B3E708A8007A0028AFD166
:105CB000AEE7FFB58FB00D461F4601AC204602226D
:105CC0000FA9FFF71BFC684685710326012D3CD008
:105CD0001025E01C2A461199FFF710FCED1CE8B2D4
:105CE0002754401CC0B218992154401CC0B21999C5
:105CF0002154401CC0B21A992154401CC0B21B99B7
:105D00002154401CC0B21C992154401CC5B203222E
:105D1000002108A8FFF7F6FB1822002109A8FFF7C9
:105D2000F1FB3F2069468884FF200530C8840B942E
:105D30000C9508A80D900E96002109A800F07AFA9B
:105D4000002804DAFF2013B0F0BD0225C1E708A83F
:105D500000780028F7D108A988784978000208431C
:105D60001D9908800020EEE7FFB5A7B0309F319E57
:105D700015466C462046022227A9FFF7BFFBA01C50
:105D8000022228A9FFF7BAFB68460571012D14D03D
:105D90001025601D2A462A99FFF7B0FB6D1DE8B259
:105DA0002754401CC0B22654401CC5B27019401D77
:105DB000802804D942202BB0F0BD0225E9E7601904
:105DC00032463299FFF79AFBA819C0B23399215491
:105DD000401CC0B234992154401CC0B235992154A2
:105DE000401CC0B236992154401CC0B2379921548E
:105DF000401CC5B20322002120A8FFF783FB182214
:105E0000002121A8FFF77EFB3F2020A98880FF20EA
:105E10000630C8802394249520A82590032026903E
:105E2000002121A800F006FA002801DAFF20C2E7CD
:105E300020A800780028BED120A9887849780002DF
:105E40000843389908800020B5E7F0B58DB01646B4
:105E50001F466A4601AD107101282BD01024681C22
:105E60002246FFF74BFB641CE0B22E54401CC0B22C
:105E70002F54401CC4B20322002106A8FFF742FBA6
:105E80001822002107A8FFF73DFB3F2069468883C1
:105E9000FF200330C88309950A9406A80B900320BD
:105EA0000C90002107A800F0C5F9002804DAFF20B3
:105EB0000DB0F0BD0224D2E76846007E0028F7D17D
:105EC0006946887E497E00020843129908800020B6
:105ED000EEE700B589B002901822002103A8FFF771
:105EE00011FB3F2069468881FF202830C88102A825
:105EF00005900220069001A807900120089000213B
:105F000003A800F097F9002802DAFF2009B000BDCD
:105F100068460079FAE700B587B01822002101A889
:105F2000FFF7F0FA3F2069468880FF200230C880E2
:105F30006846059001200690002101A800F07AF93A
:105F4000002802DAFF2007B000BD68460078FAE7B3
:105F5000FFB5A7B016461C46A01D0746802802D9EB
:105F600042202BB0F0BD6D462846022227A9FFF73C
:105F7000C5FAA81C022228A9FFF7C0FA69460E71CB
:105F80004C71A81D22463099FFF7B8FAFCB21822CE
:105F9000002121A8FFF7B6FA3F2020A98880FF2022
:105FA0000730C8802395249420A8259001202690AE
:105FB000002121A800F03EF9002801DAFF20D0E7F7
:105FC00020A800780028CCD1CBE700B589B06A467C
:105FD000107251721822002103A8FFF793FA3F2094
:105FE0006A4690810F20D08102A805900220069079
:105FF00001A8079001200890002103A800F01AF9D9
:10600000002802DAFF2009B000BD68460079FAE7EF
:10601000F0B5A7B00B461746991C0C46802902D94B
:10602000422027B0F0BD69466D46087001264B70CE
:10603000A81C1A463946FFF761FAE4B2182200217B
:1060400021A8FFF75FFA3F2020A988800C20C88094
:106050002395249420A825902696002121A800F0BD
:10606000E9F8002801DAFF20DBE720A80078D8E76C
:1060700010B5064CA069FBF72EF8E069FAF758FE58
:1060800002210020FDF7ACFA10BD00000C0000203A
:1060900038B504466846047069460320ABBE204606
:1060A00038BD000008B5FBF7F5F80AE06946094875
:1060B00000F0CFF907480099083800F0B2F9FCF772
:1060C00005FB0448083800F08FF90228EEDBFBF7E7
:1060D000F7F808BD5400002070B586B006460C469F
:1060E00001A8009002AB04AA03A905A800F01BF8C0
:1060F000C5B2002D12D169468889000A307088899E
:106100000002208089880906090F090108432080C0
:10611000694689880907090F08432080FCF712FBAC
:10612000284606B070BDF0B589B004460D46164647
:106130001F46092200216846FFF7E4F918220021D2
:1061400003A8FFF7DFF90420694688810120C88190
:1061500000200590069068460790092008900021CD
:1061600003A800F067F8002802DAFF2009B0F0BDAC
:10617000684600780028F9D1694648782070488838
:10618000288008793070887949790002084338807E
:106190006946087AC979000208430E9908800020F0
:1061A000E4E730B58FB004460D462022002101A857
:1061B000FFF7A8F9684604711F2C00D91F24224656
:1061C00001AC2946601CFFF799F91822002109A8A3
:1061D000FFF798F90820694688840920C8840B9441
:1061E00020200C9068460D9001200E90002109A8F7
:1061F00000F020F8002802DAFF200FB030BD68461A
:106200000078FAE77CB514461D468905890D8002A1
:1062100001436A469180947101201070032201A904
:106220006844FFF76BF9234604222946684600F0CC
:10623000C5F87CBDF3B585B004466088217880053B
:10624000800D8902084385B25A480A210068F9F78F
:106250004FFF074600260296684600F0D3F8FFF786
:1062600021FF227B61882088A368FFF7CBFF069877
:10627000002802D0002007B0F0BD002F00D1012778
:10628000394603A8FFF7BCFA10E0FCF781FA0028B2
:106290000CD1FAF7FFFF02A9474800F0DAF802989C
:1062A000034608331978042906D057E003A8FFF7FE
:1062B00099FA00286ED1E8E701460B318030027A66
:1062C000D21E58780E281CD00F2804D0102861D078
:1062D0003E2843D127E0C8788B7800021843A842B3
:1062E00058D160680F2803D00878002852D135E0D3
:1062F0006069904200DC024662612069FFF7FEF8A7
:106300001FE008468378467818023043A84241D1FE
:10631000C91CD21E6069904200DC0246626120699D
:10632000FFF7ECF80DE008786368984216D1521E2A
:106330006069904200DC02466261491C2069FFF7F7
:10634000DDF81D480299083800F05FF869461A48E0
:1063500000F0BAFAFAF7B4FF00208CE716480838C4
:1063600000F06BF800280BD0134800F066F8002806
:1063700006D011480299083800F053F8029604E05C
:106380006846029900F04DF80296FCF79FF9FAF77B
:1063900097FF8BE70299002903D00748083800F0DF
:1063A00034F86946044800F08FFAFAF789FF0020B4
:1063B000C04360E72C6900085400002010B5FCF7CA
:1063C0007BFE10BD10B507490020FAF739FE0549DC
:1063D0000020091DFAF78CFC03210020FDF74CF981
:1063E00010BD00002400002002460020EFF31083BF
:1063F00072B6116801E0401C09689142FBD183F339
:1064000010887047006040607047EFF3108272B6EA
:1064100003680B60486001600868416082F310887F
:106420007047EFF3108272B6086043684B604160BA
:106430004868016082F310887047EFF3108172B6EC
:106440000268824201D1012000E0002081F310881F
:10645000704730B50C46EFF3108572B601682160C5
:10646000006800F008F82168002008602168486092
:1064700085F3108830BDEFF3108172B6436802686F
:106480001A6005C8426081F31088704730B50C4629
:10649000EFF3108572B6416821604068FFF7EBFFAB
:1064A0002168002008602168486085F3108830BDAD
:1064B00010B50A460623282100F0EDF810BD10B5EE
:1064C0000A460623222100F0E6F810BD38B505463D
:1064D0000C4601236A461221284600F0DCF8002809
:1064E0000DD169460878FB210840E107490F0843B0
:1064F000009001236A461221284600F0D3F838BDE7
:1065000038B505460C4601236A461221284600F09C
:10651000C2F800280DD169460878BF210840E1077C
:10652000490E0843009001236A461221284600F0D4
:10653000B9F838BD10B50A4601230F2100F0ABF8B9
:1065400010BD38B505460C4601236A460A21284687
:1065500000F0A1F800280DD1694608786107C0084D
:10656000C000490F0843009001236A460A212846CB
:1065700000F098F838BD38B50C4601236A46112161
:1065800000F089F86946097809090B00FFF77BF9E3
:106590000B070A0D101316191C1F222528000021B5
:1065A000217038BD0121217038BD0221217038BD14
:1065B0000321217038BD0421217038BD05212170CF
:1065C00038BD0621217038BD0721217038BD082152
:1065D000217038BD0921217038BD0A21217038BDD4
:1065E0000B21217038BD38B505460C4601236A469B
:1065F0001121284600F04FF800280CD16946087890
:106600000007000F21010843009001236A46112171
:10661000284600F047F838BD38B50C4601236A46D5
:10662000112100F038F8694609780907490F0B0075
:10663000FFF729F90705080B140E141114000021A7
:10664000217038BD0121217038BD0221217038BD73
:106650000421217038BD0621217038BD0721217029
:1066600038BD38B505460C4601236A461121284637
:1066700000F011F800280DD169460878F121084092
:106680006107090F0843009001236A46112128463B
:1066900000F008F838BD30B4846845682046AC4640
:1066A00030BC604730B4846805682046AC4630BCD6
:1066B000604738B50C4601236A461021FFF7EBFF0F
:1066C0006946097809090B00FFF7DDF80C070A0D88
:1066D000101316191C1F2225282B0021217038BDEC
:1066E0000121217038BD0221217038BD03212170A4
:1066F00038BD0421217038BD0521217038BD062127
:10670000217038BD0721217038BD0821217038BDA6
:106710000921217038BD0A21217038BD0B2121705B
:1067200038BD0C21217038BD38B505460C46012313
:106730006A4610212846FFF7AEFF00280CD16946B3
:1067400008780007000F21010843009001236A46E2
:1067500010212846FFF7A6FF38BD38B50C460123A7
:106760006A461021FFF797FF694609780907890FE4
:1067700008D0012909D002290AD003290BD004210D
:10678000217038BD0021217038BD0121217038BD34
:106790000221217038BD0321217038BD38B505466E
:1067A0000C4601236A4610212846FFF774FF002893
:1067B0000DD169460878F3210840A107090F084365
:1067C000009001236A4610212846FFF76BFF38BD71
:1067D0008EB037A438A103C90D910C90FBF708F9CE
:1067E0000020FAF717FBFEF765FFFFF7EBFDFFF759
:1067F0003FFCFAF7BFF9FBF74FFFFAF78AFC05A950
:1068000006A8FFF769FCFAF784FC6846007E0125BC
:106810002B4E302803D93570022008A9487506226E
:106820000CA90AA8FEF76AFE0AAA06210020FFF7B3
:10683000EFFBFFF770FB3078012813D007AB08AAF5
:1068400009A90120FFF722F92046F9F7A1FCC3B2FC
:1068500068460094018C0022808CFFF779FB0028A9
:106860000BD0FEE707A808A90091019009AB072209
:1068700000210120FFF748F9E6E712480021102225
:10688000009202900723039501910A460120FFF729
:106890007CF9F9F7C7FFFAF72BF8FAF7EDF80421BE
:1068A0000120FFF792FBFBF74DFFFEF7B1FFFAE780
:1068B000426C7565524E4700AC3400E18002000026
:1068C0000800002040E2010038B505460C4607E00C
:1068D00069462046FFF7DAFD28460099FFF795FD47
:1068E0002046FFF7AAFD0028F2D038BD00B589B0D8
:1068F0000CA003C80891079000210846FFF751FC3F
:10690000002007A9082206900590019202910390A9
:1069100004900346009002460146FFF770F909B063
:1069200000BD000009426C75654E5247E803000047
:10693000070020000020000000000000000001020D
:10694000030406070809030406080C101820300089
:106950000000000102030401020304060708090005
:106960002E2E5C2E2E5C2E2E5C2E2E5C2E2E5C2E61
:106970002E5C447269766572735C4253505C436F5F
:106980006D706F6E656E74735C6C707332356862B7
:106990005C4C5053323548425F4472697665722EC2
:1069A00063000000C4690008000000201802000015
:1069B00078070008006B0008180200205808000043
:1069C000B0580008C102220112501208A450E80376
:1069D000041A80841E021E1013E92B1B0873041373
:1069E000612C1B0829041AE10C1A6B041AD1041A31
:1069F000D9041A9B141AA3041A17041AAB042A9F69
:106A000030122F1408FD2E1B08EB081AB3041A6B62
:106A1000041AF5101A63081A5B041325301B082D9D
:106A2000041AA10C1A35081A29084113BD481B087D
:106A30005D041B35494019081AB5041A55041AADEE
:106A4000041AA5041A6F181A77041AEB0C1A7F0897
:106A50001A89088113CB411B087104133B421B08A0
:106A600007041AC30C1A69041ABB041AB3041A6B7C
:106A7000141A97041AF50C2AC30C19081B8B370C2F
:106A800019041317381B08A7081301391B081F0422
:106A90001AFB0C1A63041ADF041ABD1C1A33041AF9
:106AA000EF041A3D1C1A81081A4504011C5A0104FE
:106AB00032021309531408D14E1B08950813E152F2
:106AC0001408494B1B080904130D4D1408614C1B95
:106AD0000899081A17081A69081A73181AEB041388
:106AE000434F1B080304130551140865501B08A9E4
:106AF000081A0D081A69081A6D181AE104410000F5
:04000005080000C12E
:00000001FF
